:1040000000800020AD770100D9770100D977010049
:10401000D9770100D9770100D9770100D97701005C
:10402000D9770100D9770100D9770100D97701004C
:10403000D9770100D9770100D9770100D97701003C
:10404000059B0000D5570000D9770100D977010002
:10405000D9770100A1CB0000D977010009580000F1
:10406000D9770100D9770100D9770100052801002F
:1040700031580000A52C0100D9770100D977010043
:10408000D9770100D9770100D9770100D9770100EC
:10409000D9770100D9770100812C0100D97701007F
:1040A000D9770100D9770100D9770100D9770100CC
:1040B000D9770100D9770100B9570000D9770100FD
:1040C000D9770100D9770100D9770100D9770100AC
:1040D000D9770100D9770100D9770100D97701009C
:1040E0000348044B834202D0034B03B11847704787
:1040F00090070020900700200000000005480649B6
:104100000B1AD90F01EBA301491002D0034B03B1E5
:10411000184770479007002090070020000000001B
:1041200010B5064C237843B9FFF7DAFF044B13B1FF
:104130000448AFF300800123237010BD0008002065
:1041400000000000B8E0020008B5044B1BB10449B0
:104150000448AFF30080BDE80840CFE7000000004E
:1041600004080020B8E00200A3F5803A704700BFC1
:10417000154B002B08BF114B9D46FFF7F5FF0021A3
:104180008B460F461148124A121A18F01FFD0C4BAD
:10419000002B00D098470B4B002B00D098470020F5
:1041A000002104000D000B4818F0F0FA18F00EFC86
:1041B000200029000FF00AFE18F0F4FA00000800B1
:1041C0000000000000000000008000200008002027
:1041D00090410020CDC70100024A034B012111701C
:1041E00018807047AE080020AC08002000B583B0EE
:1041F00004220820114610230090012001F0C0FB8A
:1042000001F058FB44F63823144844F268224BF678
:10421000803102F0B9FE12484FF47A724BF68031C9
:1042200002F0EAFDB0EE000A64224BF680310D4840
:1042300002F0FAFB0C4803F0BFF80C4803F0BCF89E
:104240000B4802F065FC0B4802F062FC4BF6803034
:1042500003B05DF804EB01F0F9BA00BF5C08002080
:104260003408002098080020440800201C08002082
:10427000680800208008002001F0E8BC2DE9F04F1C
:104280002DED068B774C784DDFED789ADFED788A4F
:104290009FED789A4FF0000885B0074684F80080BB
:1042A00085F8008001F06AFA82464EF66020874267
:1042B000714B28BF07464BF6803202FB07F7CDE96A
:1042C0000188A3FB0737BF09C346B84504D10DE0F9
:1042D0002B7803F0FF068BB92378002BF8D000264B
:1042E000304605B0BDEC068BBDE8F08F2378002684
:1042F000304605B0BDEC068BBDE8F08F5F4B1B88E8
:104300001BB207EE903AB8EEE70ABAF1000F01D0FF
:10431000B1EE400A5A495B4803F070F8B5EEC00AA6
:10432000B0EE408AF1EE10FAC8BFB0EE480A564926
:104330005648D8BFB1EE400A03F046F8B4EEE80A9A
:10434000F1EE10FAD8BFB0EE680A88EE00AA504A23
:10435000504B5148D2ED007AFCEEE77ACDED037A6E
:104360009DF80C9003EB890191ED000A4B492AEE70
:10437000000A02F0D5FBA9F14009464B47494848DD
:104380005FFA89F903EB8909B0EE408A99ED000ADA
:104390002AEE000A02F0C4FB68EE007AB6EE007A5C
:1043A00067EE877A3A4A79EE677A92ED007A77EE8D
:1043B000877AF5EEC09ABCEEE77AF1EE10FA17EEC6
:1043C000103A23F0FF0307EE103AB8EE477A77EE83
:1043D000C77AC2ED007A04DBB5EEC08AF1EE10FABE
:1043E00010D4F5EEC09AF1EE10FA06D40023F0EEE8
:1043F000489A08F101082B7067E7B5EEC08AF1EE24
:1044000010FAF3DBA8EB0B0BABF1B503762B0ED94F
:104410006FF4D2708344BBF1760F1ED8019B022B40
:104420000ED001230022CDE90132C346DEE7019B15
:10443000012B0FD002230021CDE90131C346D5E77E
:1044400001230193029B01330A2B02933FF450AFE7
:10445000C346CBE702230193F4E700230293C3464C
:104460000193C3E740080020AE08002000000000D0
:104470000000C8420000C042D34D6210AC080020CA
:104480005C08002044080020340800201C0800209C
:10449000B0080020B0DB0100680800209808002068
:1044A000800800202DE9F04F4EF660262DED068B9A
:1044B000B14228BF3146A54AA54CA64DDFEDA68ADC
:1044C0009FEDA69ADFEDA69ADFF8C4B24BF68036D0
:1044D00087B001FB06F60023A2FB062623701F46C9
:1044E0008146B6092B700093039301939A46B74215
:1044F00080F0DB80B9F1000F0FD101E02B7883B998
:104500002378002BFAD0207880F0010007B0BDECB2
:10451000068BBDE8F08F2B781BB92378002BFAD0DF
:10452000F1E7C7F30B00002878D08E4B8E481B882C
:104530008E491BB200EE103AB8EEC00A02F05EFFE0
:10454000B5EEC00AB0EE408AF1EE10FAC8BFB0EE88
:10455000480A87498748D8BFB1EE400A02F034FFC5
:10456000B4EEC90AF1EE10FAD8BFB0EE490A88EEEF
:1045700000AA814A814B8248D2ED007AFCEEE77AAC
:10458000CDED027A9DF8088003EB880191ED000AD9
:104590007C492AEE000A02F0C3FAA8F14008774BE2
:1045A000784979485FFA88F803EB8808B0EE408ACA
:1045B00098ED000A2AEE000A02F0B2FA68EE007ADC
:1045C000B6EE007A67EE877A6B4A79EEE77A92ED7B
:1045D000007A77EE877AF5EEC08ABCEEE77AF1EEE4
:1045E00010FA17EE103A23F0FF0307EE103AB8EE78
:1045F000477A77EEC77AC2ED007A04DBB5EEC08A5F
:10460000F1EE10FA12D4F5EEC08AF1EE10FA08D4E9
:104610000023F0EE488A01372B7068E711F02CFC7C
:1046200083E7B5EEC08AF1EE10FAF1DB009BA7EB51
:104630000A0A63B3012B64D0023BDBB2012B24D8FE
:10464000AAF17903B3F5EF7F66D8BAF5B47F0CD938
:10465000019B03F0010218326A44580812F8041C46
:10466000012383400B4302F8043C6FF496739A4491
:10467000019BBAF1760F03F10103019322D8042BB9
:1046800000F08880019B0E2B1FD0BA46C0E76FF464
:1046900096708244BAF1770F38BF01230093019BD3
:1046A00038BF00230193BA46B2E7B9F1000F05D035
:1046B000237828E72B78002B7FF433AF2378002B67
:1046C000F8D020E702230093DCE7304B9DF815205B
:1046D0009DF814109A5C5B5C43EA0213039A0BF892
:1046E0000230531C102B039300F05481022011F070
:1046F000C3FB0023ADF8143001930323BA460093A3
:1047000086E76FF496710AEB0103762B0BD8019BB9
:1047100001330193BA467BE7032011F0ADFB002380
:10472000BA46009374E7AAF1B503762B05D96FF466
:10473000D2720AEB0203762B04D8019B053B122BA5
:1047400040F22D820023BA46009361E7D34D6210F8
:1047500040080020AE080020000000000000C84211
:104760000000C042AC080020440800205C08002083
:10477000340800201C080020B0080020B0DB010035
:1047800068080020980800208008002030DB010025
:10479000B4080020009B032B40F00C82039B022BEB
:1047A0007FF673AFDFF82CE4AEF10202991E02EB44
:1047B000030841F2210000231EF801CB5A0092B2F7
:1047C0001CF0800F18BF01324FEAD33318BF92B2EA
:1047D00003B1424053009BB21CF0400F18BF01339D
:1047E0004FEAD23218BF9BB202B143405A0092B294
:1047F0001CF0200F18BF01324FEAD33318BF92B21A
:1048000003B1424053009BB21CF0100F18BF01339C
:104810004FEAD23218BF9BB202B143405A0092B263
:104820001CF0080F18BF01324FEAD33318BF92B201
:1048300003B1424053009BB21CF0040F18BF013378
:104840004FEAD23218BF9BB202B143405A0092B233
:104850001CF0020F18BF01324FEAD33318BF92B2D7
:1048600003B1424053009BB21CF0010F18BF01334B
:104870004FEAD23218BF9BB202B14340C6459BD12A
:104880005A0092B2DB0B1CBF82F4815282F001020B
:1048900053009BB2D20B1CBF83F4815383F00103FE
:1048A0005A0092B2DB0B1CBF82F4815282F00102EB
:1048B00053009BB2D20B1CBF83F4815383F00103DE
:1048C0005A0092B2DB0B1CBF82F4815282F00102CB
:1048D00053009BB2D20B1CBF83F4815383F00103BE
:1048E0005A0092B2DB0B1CBF82F4815282F00102AB
:1048F00053009BB2D20B1CBF83F4815383F001039E
:104900005A0092B2DB0B1CBF82F4815282F001028A
:1049100053009BB2D20B1CBF83F4815383F001037D
:104920005A0092B2DB0B1CBF82F4815282F001026A
:1049300053009BB2D20B1CBF83F4815383F001035D
:104940005A0092B2DB0B1CBF82F4815282F001024A
:1049500053009BB2D20B1CBF83F4815383F001033D
:104960005A0092B2DB0B1CBF82F4815282F001022A
:1049700053009BB2D20B1CBF83F4815383F001031D
:104980001BF80100DAB2904200F01881042011F007
:1049900073FAD7E68E48002300F10E0E41F2210C87
:1049A00010F8011F5A0092B211F0800F18BF0132A7
:1049B0004FEAD33318BF92B20BB182EA0C02530014
:1049C0009BB211F0400F18BF01334FEAD23218BF2B
:1049D0009BB20AB183EA0C035A0092B211F0200F85
:1049E00018BF01324FEAD33318BF92B20BB182EA3B
:1049F0000C0253009BB211F0100F18BF01334FEAA5
:104A0000D23218BF9BB20AB183EA0C035A0092B2A9
:104A100011F0080F18BF01324FEAD33318BF92B21A
:104A20000BB182EA0C0253009BB211F0040F18BFC5
:104A300001334FEAD23218BF9BB20AB183EA0C03AA
:104A40005A0092B211F0020F18BF01324FEAD3336D
:104A500018BF92B20BB182EA0C0253009BB2C90795
:104A600048BF01334FEAD23248BF9BB20AB183EA52
:104A70000C03864594D15A0092B2DB0B1CBF82F422
:104A8000815282F0010253009BB2D20B1CBF83F40F
:104A9000815383F001035A0092B2DB0B1CBF82F4F6
:104AA000815282F0010253009BB2D20B1CBF83F4EF
:104AB000815383F001035A0092B2DB0B1CBF82F4D6
:104AC000815282F0010253009BB2D20B1CBF83F4CF
:104AD000815383F001035A0092B2DB0B1CBF82F4B6
:104AE000815282F0010253009BB2D20B1CBF83F4AF
:104AF000815383F001035A0092B2DB0B1CBF82F496
:104B0000815282F0010253009BB2D20B1CBF83F48E
:104B1000815383F001035A0092B2DB0B1CBF82F475
:104B2000815282F0010253009BB2D20B1CBF83F46E
:104B3000815383F001035A0092B2DB0B1CBF82F455
:104B4000815282F0010253009BB2D20B1CBF83F44E
:104B5000815383F001035A0092B2DB0B1CBF82F435
:104B6000815282F0010253009BB2D20B1CBF83F42E
:104B7000815383F001039BF80E10DAB291427FF467
:104B800005AF9BF80F20B2EB132F7FF4FFAE0E2181
:104B9000584611F0C1F90023BA46009338E50120C8
:104BA00011F06AF900230222CDE90023ADF8143098
:104BB000039345E50223BA46009329E5039A5A4434
:104BC00012F8012CB2EB132F7FF4E0AEE0E700BF48
:104BD000B3080020B4080020014B01221A7070476E
:104BE00040080020DB4A002310B51946D2F81441D2
:104BF00018461A4605F060FD00231A4618460121A2
:104C000005F05AFD00231A461846022105F054FD0E
:104C100000231A461846032105F04EFD00231A46CC
:104C20001846042105F048FD00231A4618460521C0
:104C300005F042FD00231A461846062105F03CFD0A
:104C400000231A461846072105F036FD00231A46B0
:104C50001846082105F030FD00231A4618460921A0
:104C600005F02AFD00231A461846E4B20A2105F091
:104C700023FD022C4FF0000340F270811A461846C3
:104C80000B2105F019FD00231A4618460C2105F0EA
:104C900013FD00231A4618460D2105F00DFD0023D3
:104CA0001A4618460E2105F007FD00231A4618463D
:104CB0000F2105F001FD00231A461946012005F0D9
:104CC000FBFC002301211A46084605F0F5FC0023F1
:104CD0001A460221012005F0EFFC00231A460321A9
:104CE000012005F0E9FC00231A460421012005F00B
:104CF000E3FC00231A460521012005F0DDFC00231A
:104D00001A460621012005F0D7FC00231A46072188
:104D1000012005F0D1FC00231A460821012005F0EE
:104D2000CBFC00231A460921012005F0C5FC002315
:104D30001A460A21012005F0BFFC00231A460B2168
:104D4000012005F0B9FC00231A460C21012005F0D2
:104D5000B3FC00231A461946022005F0ADFC0023DF
:104D60001A460121022005F0A7FC00231A46032160
:104D7000022005F0A1FC012304220721022005F0F6
:104D80009BFC00231A460821022005F095FC002315
:104D90001A460921022005F08FFC00231A460A2139
:104DA000022005F089FC00231A460B21022005F0A1
:104DB00083FC00231A461946032005F07DFC0023DE
:104DC0001A460121032005F077FC00231A46022130
:104DD000032005F071FC002303211A46084605F064
:104DE0006BFC00231A460421032005F065FC002318
:104DF0001A460521032005F05FFC00231A4609210D
:104E0000032005F059FC00231A460A21032005F06F
:104E100053FC00231A460B21032005F04DFC002310
:104E20001A460C21032005F047FC00231A461946B8
:104E3000042005F041FC00231A460121042005F05E
:104E40003BFC00231A460221042005F035FC002318
:104E50001A460321042005F02FFC002304211A46E2
:104E6000084605F029FC00231A460521042005F018
:104E700023FC00231A460621042005F01DFC002314
:104E80001A460721042005F017FC00231A460821C2
:104E9000042005F011FC00231A460921042005F026
:104EA0000BFC00231A460A21042005F005FC002310
:104EB0001A460B21042005F0FFFB00231A460C21A3
:104EC000042005F0F9FB00231A460D21042005F00B
:104ED000F3FB00231A460E21042005F0EDFB00230E
:104EE0001A460F21042005F0E7FB00231A46032190
:104EF000052005F0E1FB00231A460421052005F0FA
:104F0000DBFB002305211A46084605F0D5FB0023EC
:104F10001A460621052005F0CFFB00231A4607217B
:104F2000052005F0C9FB00231A460821052005F0DD
:104F3000C3FB00231A460921052005F0BDFB002311
:104F40001A460C21052005F0B7FB034B0122C3F8DC
:104F50002C2110BD001008400060004018460422BB
:104F60000B2105F0A9FB00231A4618460C2105F079
:104F7000A3FB00231A4618460D2105F09DFB0023D4
:104F80001A4618460E2105F097FB00231A461846CC
:104F90000F2105F091FB00231A461946012005F068
:104FA0008BFB002301211A46084605F085FB0023F0
:104FB0001A460221012005F07FFB00231A46032137
:104FC000012005F079FB00231A460421012005F099
:104FD00073FB00231A460521012005F06DFB002319
:104FE0001A460621012005F067FB00231A46092115
:104FF000012005F061FB00231A460A21012005F07B
:105000005BFB00231A460B21012005F055FB002312
:105010001A460C21012005F04FFB00231A461946C1
:10502000022005F049FB00231A460121022005F069
:1050300043FB002304220321022005F03DFB002353
:105040001A460721022005F037FB00231A460821E3
:10505000022005F031FB00231A460921022005F049
:105060002BFB00231A460A21022005F025FB002312
:105070001A460B21022005F01FFB00231A46194691
:10508000032005F019FB00231A460121032005F037
:1050900013FB00231A460221032005F00DFB002319
:1050A00003211A46084605F007FB00231A4604218F
:1050B000032005F001FB00231A460521032005F01B
:1050C000FBFA00231A460921032005F0F5FA002314
:1050D0001A460A21032005F0EFFA012304220B21CE
:1050E000032005F0E9FA012304220C21032005F036
:1050F000E3FA042210460123002105F0DDFA002323
:105100001A4601210420013C05F0D6FA012C3FF695
:1051100098AE042201230221104605F0CDFA96E64E
:1051200070B50C4686B00025064605A920460595B3
:1051300010F026FD084B1A88059B0095013ACDE931
:10514000012530462A46214604F02EFE034809F088
:1051500045F806B070BD00BF680D00200080084013
:1051600008B50449044B4022012006F0D1F8002084
:1051700008BD00BF6C0D00208964000008B504491B
:10518000044B4022022006F0C3F8002008BD00BFF7
:105190006C0D0020A9640000027838B512F060059B
:1051A000044605D14378062B19D06FF0020038BDB4
:1051B0006FF00200C02AFAD16378012B23D0022BB2
:1051C000F5D1A388072BF2D1E28822490023B22A25
:1051D00028BFB222184606F0ABF9002038BD43883C
:1051E0001B0A212B1ED0222B28D00F2BDDD1C288E9
:1051F0001949392A28BF39222B46284606F098F942
:1052000022782846D6E7A388022BD0D1E28813491A
:1052100000231B2A184628BF1B2206F089F9637851
:105220000020CCE7C2880E49092A28BF09222B4654
:10523000284606F07DF922782846BBE7C28809494E
:105240001C2A28BF1C222B46284606F071F922781A
:105250002846AFE7D4E0010070E0010088E10100DA
:10526000ACE00100B8E00100052910B502D0052826
:105270000ED010BD0A4B0B494022012006F048F821
:10528000BDE81040084B07494022022006F040B814
:10529000012005F079FEBDE81040022005F074BE43
:1052A000896400006C0D0020A96400002DE9F04124
:1052B0002A4E2B4D84B0044601212A4804F0A6F85A
:1052C00000270A2369463046CDE9007702978DF81A
:1052D00002308DF80C7005F0A5FCF368224A43F00B
:1052E0000103F3604FF48053C2F880314FF001089E
:1052F0001360112085F8008004F0EAF8B4F57A7F95
:1053000028BF4FF47A74830A04FB03F3174C03F5A8
:10531000FA73A4FB03239B09F3617762C6F8048048
:105320002B7843B1124A136923F00403136130BF91
:105330002B78002BF7D109480B4AC3684FF48051F2
:1053400023F00103C360C2F8801005F0CDFC0548CE
:10535000002104F05BF804B0BDE8F08100040140D6
:10536000D40800200062040000E100E0D34D621088
:1053700000ED00E0364B2DE9F04FD3F81431DBB2ED
:10538000022B87B007461AD8324B334D08229A6554
:105390000FCD6C460FC495E80300062684E8030091
:1053A0002E48ADF80A60012104F030F82C48694617
:1053B00003F040FC2A4800220A2103F033FC294D67
:1053C000DFF88CA0264C4FEA57081A26DAF8143179
:1053D000DBB2022B5FFA86F917D8214803F016FCDE
:1053E00063681F4808EB550BBBFBF7FBBBF13F0F96
:1053F00028BF4FF03F0B23F47C5343EA0B23636039
:1054000003F00AFCA368DA07FCD5DAF81431DBB242
:10541000022B02D8A3689B0706D4A5F5C455013E0C
:10542000A5F11C05D2D1B146094BD3F81431DBB23A
:10543000022B09D80A4803F0E9FB0848002103F0D1
:10544000E5FF044B0822DA65484607B0BDE8F08F57
:105450000010084000600040C0DF0100009204001E
:10546000001000402AC204002DE9F0478AB012F073
:1054700097FA01221146022004F010FB01211120AD
:1054800003F02AFE0421112004F07AF900221146CB
:10549000032004F003FBA448012103F0B7FF01211E
:1054A000A24803F0B3FF05F0F3FA054605F0CEFA83
:1054B00015F4807454D09E4B9A6AD20748D49C4B02
:1054C0000022C3F8102105AE15F01005984B1ABF45
:1054D000984AC3F80C21C3F80C51FFF783FB002353
:1054E00001220621022005F0E7F80023012208210D
:1054F000032005F0E1F80124062211462346CDE9F8
:105500000044022005F09CF8082223461146CDE90C
:105510000044032005F094F8874A0221C2F8801164
:105520001160864A07CA334603C340F201151A7058
:1055300031460D238248ADF816508DF81C3008F026
:1055400059FE7F4821460AB0BDE8F04708F02CBE5E
:10555000D3F8042101210A44C3F804211963AEE7FA
:10556000784F7948012103F051FF05AE4FF0F85311
:1055700003A938460393ADF8104003F089FB0523D7
:10558000059431467460347238468DF8183040F214
:105590000523ADF8153003F0B3FB01237B60BC6835
:1055A00014F00104FBD17F6A664803F03DFC6648B5
:1055B000214603F02BFFFF2F7BD80022114601204C
:1055C00004F06CFA00221146104604F067FA00233A
:1055D00004220721012005F06FF86420FFF766FE22
:1055E000012318460422072105F066F80A20FFF778
:1055F0005DFE564A0023D2F81C7807211A46012086
:1056000005F05AF827B9524A136843F480531360DF
:105610000122504FDFF844811146002004F03EFA89
:1056200097E8030008234FF001094FF0000A0590A6
:105630008DF818108DF816308DF814903046C8F893
:10564000C0A504F0E5FF5146022005F0EFF9083748
:10565000C8F8C095B4464FF003084FF4005E0FCF72
:10566000ACE80F003B68CCF8003000272023304620
:1056700007938DF81580ADF818E08DF824708DF83B
:10568000147003F02FFC2A4B01221A635A6B42F06C
:1056900001025A631A68304AD760264AC3F8144197
:1056A000C3F80871C3F80071C3F80471C3F810217E
:1056B0000AE7B7F5007F34D3B7F5407F01D2022463
:1056C0007BE722462146204604F0E8F901221146F4
:1056D0001046204FDFF8848004F0E0F94FF47A7030
:1056E000FFF7E4FD97E8030004234FF0010905905C
:1056F0008DF818108DF816308DF814903046C8F8D3
:10570000C04504F085FF2146022005F08FF9C8F856
:10571000C0954FF003080837B44644464FF4805E06
:105720009DE7012449E700BF00D2040000430200C6
:10573000001008404433221100E100E0F4DF0100D2
:1057400000800840002000400002050000000C42DC
:1057500000800C40D8DF01000000024300008C43B1
:10576000044A054BD2F81001C01AB0FA80F0400983
:10577000704700BF0010084044332211044BD3F897
:105780001401C0B2022894BF00200120704700BF5E
:1057900000100840112003F09BBE00BF022806D075
:1057A00001280CBF02210121112003F095BC042126
:1057B000112003F091BC00BF044A136993619B0759
:1057C00000D47047024808F009BD00BF000008403F
:1057D000008008400B4B10B5D3F81441C3F81C41AE
:1057E00014F4A07F04D144F201031C4206D110BD81
:1057F00010F0B8F944F201031C42F8D0BDE81040A3
:1058000010F0AAB90060004008B5074B9A691A6207
:10581000D20700D408BD586A00B2FEF7DDFCBDE82F
:105820000840024808F0DABC002000400080084030
:10583000044A13699361DB0702D5034B00221A70F7
:10584000704700BF00040140D408002070B5154E19
:10585000154C84B005460121144803F0D7FD3046AD
:10586000012103F0D3FD0023012218464FF4F0116B
:1058700005F0CCF8002369462046CDE900330293B9
:105880008DF80C3005F0CEF9304603F021FE084AC1
:10589000B0FBF5F001230138E0616360536004B0B0
:1058A00070BD00BF007204000008014000F2040057
:1058B000002000400548064A4369802143F0010367
:1058C0004361C2F880111160704700BF00200040A2
:1058D00000E100E0F0B5B2F5806F224D8DB088BFD9
:1058E0004FF4806306460F461F4898BF2A804FF04A
:1058F00001014FF0000488BF2B8003F087FD1B4B94
:10590000089307A88DF81C4004F006FA184B194AB2
:105910000B935C601A604FF4807309A92046ADF8C0
:1059200024304FF400230A9304F0AAF9124B059394
:1059300005AA204601218DF8184004F0CDF905AAEA
:105940002146204604F0C8F92D880C4B013DCDE9D5
:105950000235CDE9005732462146204604F012F9BF
:105960000DB0F0BD680D00200003020000200020F3
:10597000C80800202151000001030100242000403C
:105980002DE9F04F1F46A44BD3F81431DBB2154676
:105990005A1E012A97B081460E4640F20681022B1C
:1059A00000F2A4809D4B0122C3F8A4204FF0000810
:1059B0009A4B4FF400621A61974B9948D3F81441FF
:1059C0005FFA84FB974C012103F020FD0FCC0DF111
:1059D000080AAAE80F000FCCAAE80F0094E8030019
:1059E00004F1080E8AE80300BEE80F000DF1300C48
:1059F000ACE80F00BEE80F00ACE80F009EE8030023
:105A0000BBF1020F8CE8030069D84FF400431093F8
:105A1000854B8649864AB9F1000F08BF1A46854B67
:105A200008BF0B46042E28BF0426012152F8262069
:105A300053F8263004924FF0402002AA0E9304F04F
:105A4000C5FE0CAA02214FF0402004F0BFFE7448AE
:105A5000002103F0DBFC704B7748D3F8146101217F
:105A600003F0D4FC802D28BF8025012D38BF0125EF
:105A70000024724B0293013D20468DF80C508DF8A6
:105A80000D4003F011FA209A8DF80B000223802AB2
:105A9000F6B28DF8093075D0402A40D0202A00F0A7
:105AA000AB80102A00F0A080082A00F0AE80042A03
:105AB00000F0AA80624D8DF8084002A9284603F044
:105AC000E7F84FF480332B610123CDE90C448DF8C6
:105AD0003230209B8DF83840012B36D032E04FF425
:105AE000000303934FF48023069391E700231946A4
:105AF0000122032004F0E0FD012400222346CDE929
:105B000000441146032004F09BFD4E4BD3F80031B6
:105B1000002B7DD1414B8022A046DA654CE705235E
:105B20008DF80830464C02A9204603F0B1F8002356
:105B30004FF480322261CDE90C338DF838300123E7
:105B40008DF8323003238DF83330022E84BF0223C8
:105B50008DF8343040F20113102FADF835300DD0F0
:105B6000082F3DD0042F4BD0022F41D034480CA930
:105B700003F0C6F8404617B0BDE8F08F04238DF857
:105B80003130F3E72E4D062302A928468DF8083060
:105B900003F07EF84FF480332B610123CDE90C44F0
:105BA0008DF838408DF83230CCE7002318460122BA
:105BB0000E2104F081FD01240E222346CDE900448C
:105BC0001146002004F03CFD1F4BD3F8B833002BE6
:105BD0007FF4E8AE114B0422A046C3F8A420E7E608
:105BE00003238DF83130C1E703238DF8083099E79E
:105BF00001238DF83130B9E704238DF8083091E79F
:105C000002238DF83130B1E701238DF8083089E7A0
:105C10004FF00008D0E600BF0010084000600040D0
:105C20000012050000E00100000000202800002014
:105C3000140000203C000020000205000000031FAB
:105C40000020004000100C4200000C4230B52949F1
:105C5000294B2A4AD3F814414B69802523F00103CC
:105C60004B6183B0C2F88051E4B2C2F8805004F0B6
:105C7000DBF8022C19D80123214D013C9C42C5F8C8
:105C8000A03024D91E4B4FF400625A611D480021F8
:105C900003F0BCFB1C48002103F0B8FB1B480021AB
:105CA00003B0BDE8304003F0B1BB00240123CDE9CF
:105CB000003422462146032004F0C2FC234622463B
:105CC0002146032004F0F8FC0D4B9D65DEE700241F
:105CD0000E221146CDE90034204604F0B1FC2346E3
:105CE00022460E21204604F0E7FC0423C5F8A0302C
:105CF000C8E700BF002000400010084000E100E0BD
:105D000000600040001205000002050000030200D0
:105D1000774BD3F81431DBB2022B01D90020704746
:105D200010B5744B74484FF4006294B0C3F88020EF
:105D3000012103F06BFB042210460023082104F02C
:105D4000BBFC042210460023092104F0B5FC042208
:105D5000104600230A2104F0AFFC04221046002361
:105D60000B2104F0A9FC0422104600230C2104F0AE
:105D7000A3FC0422104600230D2104F09DFC042204
:105D8000104600230E2104F097FC04221046002345
:105D90000F2104F091FC0023184604220F2104F087
:105DA0008BFC002319461846042204F085FC0023CE
:105DB00018460422012104F07FFC00231846042227
:105DC000022104F079FC002318460422032104F088
:105DD00073FC002304221146184604F06DFC0023D6
:105DE00018460422052104F067FC0023184604220B
:105DF000062104F061FC042210460023012104F076
:105E00005BFC002304220921022004F055FC00233E
:105E100004220A21022004F04FFC042211461046FD
:105E2000002304F049FC042210460023052104F05D
:105E300043FC042210460023062104F03DFC04220A
:105E400010460023072104F037FC00230422082118
:105E5000022004F031FC002319460422012004F042
:105E60002BFC012108460023042204F025FC00231A
:105E700004220921032004F01FFC002304220A212C
:105E8000032004F019FC002304220921052004F05A
:105E900013FC002304220821052004F00DFC00213E
:105EA0005022684616F092FE9FED0D7B8DED107B23
:105EB0009FED0D7B022201240623684603924FF0DA
:105EC00080528DED087B8DF84C4004938DF82E4068
:105ED0000A940D93129203F0DBFF204614B010BD1C
:105EE0000000010000004800020000000300000064
:105EF00000100840006000400053020000B97047E5
:105F0000FFF7D4B9034A136923F00403136130BFC8
:105F1000704700BF00ED00E0012004F0EFBA00BFC1
:105F200038B5104D0446FEF75DFE0F48002108F01D
:105F30003BF90E4A0221A302296303F5FA73A9680B
:105F4000A2FB03239B09402B2CBFC9184031002022
:105F500003F008F86B6B43F002036B6304F040FB43
:105F6000FEE700BF0010084000800840D34D6210DB
:105F70002DE9F041002382B002220B21052004F01C
:105F80009BFB654BD3F81431DBB2022B40F2BD8092
:105F90006248634E604C634D032103F0F1FB62489D
:105FA000012103F033FA614BD3F89030ADF804309F
:105FB0001A0C4FF4A02100208DF8062004F0F6FD05
:105FC0005B485C4AC3694FF0804143F00203C36100
:105FD000C2F8801101A8116004F0F4FD564805F0E4
:105FE00049F8564FD4F81431D7F8982C32B1DBB2B7
:105FF000012BD5F820312CD9012B2CD16420FFF7AF
:1060000055F904F0B3FF05F05DFA05F01DF8484AB4
:10601000414B4849D3F81441D36923F00203D361BB
:106020004FF08043C1F8803004F0DAFDE4B23E481E
:10603000002103F0EBF9022C61D900231A460B2151
:10604000052004F039FB3378002B39D102B0BDE8CC
:10605000F081012BD2D1337803F0FF08002BCDD192
:10606000D5F82C3ACBB9A36ADB070ED5D4F80431A6
:1060700001221344C4F80431226305F005FA002814
:10608000B0D0012004F03AFAABE705F0FDF90028A2
:10609000A8D0012004F032FAA3E70422052101234D
:1060A000022004F009FB0120FFF700F9434602201B
:1060B0000422052104F000FB0120FFF7F7F8D2E7E6
:1060C0001F48002108F070F81E48D0F8201121F078
:1060D0000101C0F82011012304220021052004F051
:1060E000EBFA4FF0000018490860016881F3088856
:1060F00081F3098841688F4602B0BDE8F081002233
:106100001146012003F0CAFC97E701221146104610
:1061100003F0C4FC3CE700BF0010084002001A0076
:10612000D508002000100C4260161000C0DF0100EE
:106130000000084000E100E06CE2010000000C42B9
:10614000008008400060004008ED00E010B50E4CF3
:106150000FCC88B00DF1040CACE80F0094E80700F8
:1061600000238CE807000622012108488DF804303E
:106170008DF814308DF80E2003F048F901A807F0CF
:106180009DFF08B010BD00BF54E0010000E2040014
:106190004FF080420348136823F00103002113608D
:1061A00003F034B900E204004FF080420D4B116857
:1061B00021F0010111605168A0F27260A3FB00039D
:1061C0005B0921F03F013F2B94BF194341F03F0190
:1061D0005160136843F0010313609368DB07FCD53B
:1061E000704700BFF1F0F0F04FF080439868C0F3C3
:1061F0004000704730B5224D0FCD89B001AC0FC4BF
:1062000095E80700002384E80700062201211D48C5
:106210008DF80E208DF804308DF8143003F0F6F868
:1062200001A807F04BFF3F214FF08042136823F095
:1062300001031360536823F03F030B43536013685B
:1062400043F0010313609368D807FCD593689B075C
:1062500004D40139EAD140F2946404E001EB011165
:106260004C0004F294644FF080420648136823F017
:1062700001030021136003F0C9F8204609B030BDC6
:1062800054E0010000E2040070B5764E764CADF5A6
:10629000167D0DF085FD357840220021204616F050
:1062A00095FC6B1E25700B2B0BD8DFE803F0112734
:1062B0004F566C757F8EAA06AD0D6C4A0123137084
:1062C00063700DF5167D70BD694B1B786370F8E740
:1062D0006849D1F80401D1F800218D688B6A13F068
:1062E000010340F0AB80521943EB03019B180844B3
:1062F0009B0A43EA8053C4F80130E2E7D6F8012054
:106300005C4BC4F8012098689102081A4FEA925237
:1063100062F10004C3F80441574CC3F80001C3F80C
:106320000841986AC007CCD5D3F804010130C3F8FE
:1063300004019868091A62F100020120C3F80421DF
:10634000C3F80011C3F808411863BAE74B4B4C4A35
:1063500003CBC4F801005160B3E7FFF74BFF454A98
:10636000D2F81431DBB2022B65D8D2F81431DBB28B
:10637000022B60D8FEF7FEFF0B285CD9A0F10B03BF
:10638000DBB263709DE73849402205200DF5167D8C
:10639000BDE870400FF052BC334A3249402306201A
:1063A0000DF5167DBDE870400FF07EBC002302A8FD
:1063B00002930FF037FC029B002B82D030491A88E1
:1063C0009B788B70A4F801207BE7002302A802933E
:1063D0000FF02EFC029B002B3FF473AF284A1D6880
:1063E00058689968DE68C4F8015050609160D660C2
:1063F0001D6958699969DE69D661156150619161BD
:106400005FE7012363705CE7194A71783388117084
:1064100023801C490A2202A80AF0AAFF00287FF460
:1064200050AF104901AB022202A80BF025F902A8D7
:106430000BF0E0FB45E70023637042E7D1F804313D
:106440000133C1F80431D1F80401D1F800218B687F
:10645000D31840F100029B0A012043EA82530863EB
:1064600049E700BF6C0D0020F00D0020D50800208A
:10647000EC0D00200010084044332211F081E00FA1
:10648000F10D0020B0DF010008B5FFF7FDFE044B61
:1064900004494022812005F04BF8002008BD00BFD0
:1064A00061510000F00D002008B5FFF7EDFE044B30
:1064B00004494022822005F03BF8002008BD00BFBF
:1064C0007D510000F00D0020044BD3F81431DBB2F5
:1064D000022B01D8FEF74EBF002070470010084085
:1064E0000A4A08B5D2F81431DBB2022B0BD8D2F825
:1064F0001431DBB2022B06D8FEF73CFF0B2802D981
:106500000B38C0B208BD002008BD00BF0010084015
:1065100030B5012187B000241448154D02F076FFF4
:10652000144B01932046ADF8084002F0BDFC214613
:10653000034611488DF8073002F058FC01A90346C4
:1065400028468DF8083002F0A3FB052208232846D0
:1065500003A9CDE903448DF814408DF80D208DF882
:10656000103002F0CDFB07B030BD00BF00020500C7
:10657000002000400300001F801A060008B50448F0
:1065800002F052FCBDE808400248002102F03EBF84
:106590000020004000020500134A012310B453609C
:1065A0009368DB07FCD4114C536AD4F8B010C1F3E4
:1065B0000741FF2916D0D4F8BC0042F21072C3EB99
:1065C000105302FB03F30A481F3380FB0320C21859
:1065D000D817C0EB62104FF47A7303FB01005DF82B
:1065E000044B70470348FAE7002000400081E00FA9
:1065F000832008826079FEFF0C4B0D4AD3F81431DA
:10660000D2F8982C7AB1DBB2012B0A4BD3F82031A7
:1066100004D9012B14BF022000207047012B14BFA6
:106620000020022070470120704700BF0010084082
:1066300000000C4200100C42044A054BD2F808013D
:10664000C01AB0FA80F04009704700BF001008403F
:106650004433221110B48902164C174A01F5FA731B
:10666000A4FB03139B09946800214FF4806CE0FBAA
:106670000C311C1B61F10000C2F804010F48C2F884
:106680000041C2F80801946AE40710D5D2F8044129
:106690000134C2F8044194681B1B61F1000101241C
:1066A000C2F80411C2F80031C2F8080114635DF8A1
:1066B000044B7047D34D6210001008404433221140
:1066C000244A10B4D2F80441D2F8003192689A18E2
:1066D0004FF0000343EB030C64449B1818B19A0A73
:1066E00042EA8452026049B1C3F309034FF47A725B
:1066F00002FB03F303F500739B0A0B60154A936AD0
:10670000DB0723D5D2F804310133C2F80431D2F8C3
:106710000441D2F8003192689A184FF0000343EB1D
:10672000030C64449B1818B19A0A42EA845202602E
:1067300049B1C3F309034FF47A7202FB03F303F583
:1067400000739B0A0B60034B01221A635DF8044B34
:10675000704700BF0010084000B970471B4B10B5D0
:10676000D3F814313C28DBB228BF3C20022B82B086
:106770004FEAC03423D91648032103F001F8154825
:10678000012102F043FE144BD3F89030ADF80430F1
:106790001A0C214600208DF8062004F007FA0F4855
:1067A0000F4AC3694FF0804143F00203C361C2F84E
:1067B000801101A8116004F005FA02B010BD012299
:1067C0001146104603F06AF9D5E700BF00100840F3
:1067D00002001A0060161000C0DF0100000008402F
:1067E00000E100E0054B9A6AD20706D5D3F80421F0
:1067F00001210A44C3F804211963704700100840BE
:1068000010B58EB000230DF107010DF106008DF8D3
:1068100006308DF807300EF063FF2649D1F80401E9
:10682000D1F800218C688B6A13F001032FD1121963
:1068300043EB03019B1808449B0A43EA80539DF9EC
:1068400007209DF90610C2EB02124FF4616092001E
:1068500000FB0122134405A9002202A8CDE902325F
:1068600015F0CAFFDDE90603089C05990A9ADB02C8
:1068700043EA044343EA4013099843EA5103D03AF8
:1068800043EA4263013043EA40500EB010BDD1F8F4
:10689000043101242344C1F80431D1F80401D1F8B2
:1068A00000218B680C63D31840F100029B0A43EA75
:1068B0008253C4E700100840042203461146022018
:1068C00003F0FABE00B5042283B00346114602204D
:1068D000019303F0F1FE019B04220521022003B085
:1068E0005DF804EB03F0E8BE034604220521022014
:1068F00003F0E2BE08B5134BD3F81431DBB2022B20
:106900001AD8114B4FF480520128C3F8802015D0BB
:106910000FF068FB002001F021FF431EDBB2012BCA
:106920000AD9042808D00949094801220AF0EEFCD6
:10693000B0FA80F0400908BD002008BD0FF0A0FBB0
:10694000E6E700BF001008400060004018CF0200DA
:10695000D8080020014608B50B2203480AF008FDBC
:10696000B0FA80F0400908BD180B002038B50B4D77
:106970000146132228460AF0FBFC08B1002038BD6E
:106980000446D5E9042328460BF04EF908B9012046
:1069900038BD28460BF02EF9204638BD180B0020D4
:1069A00008B50246002303480BF03EF9B0FA80F028
:1069B000400908BD180B002038B5084D0C462B4681
:1069C0000146224606480AF057FE28B92868001BEF
:1069D000B0FA80F0400938BD002038BDC40800205E
:1069E000180B002008B50BF09FFBB0FA80F04009AF
:1069F00008BD00BF08B503480BF0FCF8B0FA80F002
:106A0000400908BD180B002008B500210BF06EFAF4
:106A1000B0FA80F0400908BD08B50BF089FAB0FA69
:106A200080F0400908BD00BF07EE902A9FED347A40
:106A3000F8EE677A10B567EE877A07EE101AB8EEAF
:106A4000477A2DED068B87EE879A0446F0EE408A52
:106A5000B0EE490A11F006FADFED2A7AB0EE408A6C
:106A600028EEA70AF7EE009A20EE090A80EE080A3F
:106A700011F066FBF0EE407AB0EE490A28EE278A64
:106A800011F0B8F919EE100AF0EE408A14F0B6FED3
:106A900041EC100B11F05CF939EEE8AA53EC102B25
:106AA000F6EE007AB8EE000A38EE299A68EE808A8F
:106AB0006AEE277A39EEC88A87EE897A1249002071
:106AC000CAEE097A88EE896AC8EE096AC4ED017ACD
:106AD00084ED036AC4ED046A84ED007A14F02EFD9F
:106AE0000A4B002214F0E2FE15F0B8F907EE900A06
:106AF000C7EE897ABDEC068BC4ED027A10BD00BFEB
:106B0000DB0FC9401872B13E0000F03F0000E03FCB
:106B100000230360C3604360036183604361704787
:106B2000D1ED007A90ED025A91ED026A90ED014AA2
:106B3000D1ED036AD0ED055AD0ED044AB0EE407AAB
:106B400091ED010A67EE277A25EE000A24EE066A27
:106B500077EE807A65EEA66A91ED040A80ED004A30
:106B600077EE867A24EE800A77EEE67AC0ED034A65
:106B700037EEC00A80ED015AC0ED045A80ED027A6A
:106B800080ED050A704700BF38B56E4BD3F808C0DA
:106B9000DA68D3F800E05B68C1F800E04B60C1F848
:106BA00008C0CA60C1F810C04A612DED0A8B90ED93
:106BB00001AA90ED008ADFED649AF1EE48AA6AEE30
:106BC000698A28EE698A0C4638EE680A38EE889A97
:106BD0000546B4EE490AF1EE10FAF1EE4ABA6BD668
:106BE00030EE29BA39EE299A81ED04BA81ED059A81
:106BF0007AEEE88A38EE4A8AB7EE001A70EE019A09
:106C0000B4EE688AF1EE10FAC4ED029A84ED039AAC
:106C100080F18A8084ED018AC4ED008A95ED02AA94
:106C2000D5ED03AA6AEE49BA2AEEC9CA2AEE4B7A12
:106C30006AEECB7A37EE4C7A77EEAB7AB1EE4AAAAF
:106C4000F4EE477AF1EE10FAF1EE6AAA5DD629EE7B
:106C50008A0A69EEAA0A30EE4C0A70EEAB0A39EEE7
:106C6000877A77EE897AB4EE600AF1EE10FA84ED55
:106C7000047AC4ED057A3DD628EE8A6A28EE2A5AAF
:106C800068EE0A6A68EEAA5A38EE807A78EE207AC0
:106C900036EE450A76EEA50A84ED027AB4EE600A75
:106CA000F1EE10FAC4ED037A19D6BDEC0A8B84ED2F
:106CB000000AC4ED010A38BDF0EE691AB0EE691A97
:106CC000F0EE6B0AB0EE6A0A15F080F930EEA99A80
:106CD00030EE29BA84ED059A84ED04BA88E7F0EE27
:106CE000481AB0EE681AF0EE6A0AB0EE4A0A15F0D9
:106CF0006DF9DAE7F0EE491AB0EE691AF0EE6A0AB9
:106D0000B0EE4A0A15F062F9B6E7F0EE491AB0EEB5
:106D10004B1AF0EE6A0AB0EE4A0A15F057F9B0EED7
:106D2000407AF0EE607A92E7DFED071AF0EE6B0A38
:106D3000B0EE6A0A15F04AF9F0EE408AB0EE608AC9
:106D400068E700BF9CE2010000000000284BDFED77
:106D5000291A5A684A6010B5D3F800C09A68DB68EF
:106D6000C1F800C08A60CB602DED068B90ED019AD2
:106D700090ED008A69EE618AF1EE489A28EE618A08
:106D80000C4638EE680A78EE880AB1EE49AAF4EEAD
:106D9000400AF1EE10FA1BD6DFED161AB7EE001A14
:106DA00030EE017A70EEA17A39EEE80A78EE490AFF
:106DB00084ED027AF4EE400AF1EE10FAC4ED037AA3
:106DC0000FD6BDEC068B84ED000AC4ED010A10BDA0
:106DD000B0EE611AF0EE4A0AB0EE690A15F0F6F864
:106DE000DAE7F0EE4A0AB0EE690A15F0EFF8E8E7E4
:106DF0009CE201000000000007EE902AB8EE677ADE
:106E000007EE901AF8EE677AF0B587EE270A064685
:106E1000544D554F554C2DED048B9FED558ADFEDAC
:106E2000558A83B020EE080A11F056F8C0EE087AB1
:106E3000514B9FED527A67EE877AB0EE000A67EE0B
:106E4000A80AB1EE677A37EE801A83ED007A30EE49
:106E5000670AF1EE601AC3ED010A15F017FA484B04
:106E600048481A695B6902604360294687ED000A59
:106E7000C7ED010AFFF76AFF21463846FFF766FFB4
:106E800094ED009A94ED028A95ED020AD5ED030A7D
:106E9000C9EE086A30EE280A70EEA80A20EE287AB9
:106EA00060EEA87A37EE207A70EE677AF1EE666AC5
:106EB000F4EE477AF1EE10FAC6ED016A34D6DFED52
:106EC0002D1AD4ED030AD5ED005A95ED016A38EE7E
:106ED000218A70EEA10A68EE216A20EEA11A76EEF0
:106EE000A06A38EE411A77EEA57AF4EE416AF1EE27
:106EF00010FA37EE067A22D6D4ED011A39EE011ACD
:106F000076EEA11AF0EE470AB0EE670A15F0BEF968
:106F100011F046F8B7EE007AC7EE007AC6ED007AB7
:106F200003B0BDEC048BF0BDF0EE681AB7EE001AAA
:106F300015F04CF8F0EE407AB0EE607ABFE7B7EEAD
:106F4000001AB0EE480ACDED017A8DED007A15F009
:106F50003DF8DDED017A9DED007AB0EE401AF0EEDD
:106F6000606AC9E7980E0020B00E0020700E002065
:106F7000DB0F494000000000880E0020DB0FC940F5
:106F80009CE20100C00E002070B507EE901A07EEDB
:106F9000102AF8EE677AB8EE477A2DED0A8B87EE65
:106FA000279A064607EE103AB8EE477ADFEDE78AF1
:106FB00087EE27BA29EE280A10F08EFFF0EE409AED
:106FC0002BEE280A10F088FF89EEA88AC0EE287AF6
:106FD0009FEDDF7A68EE078A27EE878A68EE887A67
:106FE000F5EE407AF1EE10FA00F17081B1EEE70AA9
:106FF00038EE688AF6EE007A28EE278ADFEDD50AA9
:1070000068EE20BAB1EE48CAB0EE4C1AF0EE6B1A38
:1070100015F03CF960EE007A20EEA07A60EE808AEE
:1070200077EEC77A78EEA88AB0EE401AF4EE687A66
:10703000F1EE10FAF0EE601A80F1B681F7EE009AE8
:1070400079EEE77A17EE900A14F0D8FBF1EE687A41
:1070500002460B4617EE900A43EC1A2B14F0CEFBB7
:10706000B0EE4A0AF0EE6A0A41EC110B10F0B0FCE7
:1070700051EC100B55EC114B14F0F0FE2946034671
:1070800020460CEE903A14F0E9FE7CEEA99A08EE48
:10709000900A2CEE29AA2BEEA87A6BEEA9AA6CEE28
:1070A000287A3AEE47AA7AEEA7AAB4EE6AAAF1EED7
:1070B00010FA80F16A81B7EE001A31EE6C1A28EEF0
:1070C000EB7A28EE288A6CEE019A6BEE817A79EEE3
:1070D000C79A37EE888AA04CF4EE489AF1EE10FA7F
:1070E00084ED00AAC4ED01AAF1EE688A80F1408126
:1070F000F0EE008A38EECA1A3AEE280AF1EE6A1A61
:10710000C4ED029A84ED038AF0EE6A0A15F0BEF827
:10711000924D934CB0EE407AF0EE607A38EEE91A78
:10712000F1EE481A85ED007AC5ED017A39EEA80A2C
:10713000F0EE480A15F0AAF88A4B8B481A680260EC
:107140005A6842601A695B698260C360C5ED030AD0
:1071500085ED020A8549FFF717FD28462146FFF70E
:1071600013FD94ED04AAD4ED02AAD4ED009ADFED4C
:10717000776A89EE8A7ACAEE8A7A39EE0B9AF1EE4C
:10718000677A29EE269AB1EE477AC6ED027AB0EE1A
:10719000490A86ED017A10F065FEF0EE408AB0EE05
:1071A000490A10F027FEDFED6B1A28EEA19A30EEA7
:1071B000098A68EE217A37EEC9BA39EE279AB4EE19
:1071C0004B9AF1EE10FA80F1B480684DD5ED047A57
:1071D000D5ED051A7BEE277A79EE211A28EE271ACB
:1071E00068EEA16A68EEA70A28EE217A31EE661AE7
:1071F00070EE870AF4EE410AF1EE10FA80F18E800B
:10720000D5ED027AD5ED031A31EE271A70EEA11AE8
:1072100068EE016A28EEA17A68EE810A68EE217AAA
:1072200076EEC76A70EEA70AF4EE660AF1EE10FA7F
:107230006BD6D4ED051A95ED006A3AEE0B1A39EECD
:10724000219A61EE087A69EE285A29EE087A61EEF1
:10725000281A77EEE57A37EE217A95ED01AAB4EE99
:10726000677AF1EE10FA36EE86BA30EE8AAA3FD689
:10727000D4ED031A77EEAA7A37EE217A27EE881A30
:1072800027EE286A67EEA80A67EE081A31EE461A5A
:1072900070EEA10AF4EE410AF1EE10FA1BD6D4ED1D
:1072A000011A39EE811A70EEA11AB0EE4B0AF0EE17
:1072B0004A0A14F0EBFF10F073FEB7EE007AC7EE47
:1072C000007ABDEC0A8BC6ED007A70BDB0EE670A9D
:1072D00010F06CFF8CE6B0EE671AF0EE471AF0EE95
:1072E000680AB0EE480A14F071FEB0EE401AD6E714
:1072F000F0EE491AF0EE680AB0EE480A14F066FEA5
:10730000F0EE407AB0EE607AB2E7F0EE680AB0EEE6
:10731000480A14F05BFEF0EE406A8AE7B0EE671AA6
:10732000F0EE680AB0EE480A14F050FEB0EE401AD3
:1073300066E7B0EE611AF0EE680AB0EE480A14F0A3
:1073400045FEB0EE40BAB0EE609A3EE7DB0F494032
:10735000DB0FC94000000000880E0020B00E0020A6
:10736000700E00209CE20100C00E0020980E00204C
:10737000F0EE681AF0EE6B0AB0EE4C0A14F026FE3E
:10738000F0EE409AB0EE608AB2E601EE900AB0EEFE
:10739000691AF0EE6B0AB0EE4C0A14F017FEB0EE6C
:1073A00040AAF0EE60AA86E614F010FEF0EE407AF5
:1073B000F0EE608A42E600BF00230360C3604360D2
:1073C000036183604361704791ED007AD1ED017AEA
:1073D00090ED016AD0ED046A80ED006A20EE077A34
:1073E00066EEA77A36EE070A80ED017A37EE800A5C
:1073F000C0ED036A80ED040A704700BF91ED007A8A
:10740000D1ED017AD0ED015A90ED046AD0ED056A14
:10741000836820EE077A66EE277A91ED020AC0EDC6
:10742000005A37EE655A26EE800A77EE857A436079
:1074300037EE800A80ED027A80ED036AC0ED046ABF
:1074400080ED050A704700BF38B56E4BD3F808C011
:10745000DA68D3F800E05B68C1F800E04B60C1F87F
:1074600008C0CA60C1F810C04A612DED0A8B90EDCA
:1074700001AA90ED008ADFED649AF1EE48AA6AEE67
:10748000698A28EE698A0C4638EE680A38EE889ACE
:107490000546B4EE490AF1EE10FAF1EE4ABA6BD69F
:1074A00030EE29BA39EE299A81ED04BA81ED059AB8
:1074B0007AEEE88A38EE4A8AB7EE001A70EE019A40
:1074C000B4EE688AF1EE10FAC4ED029A84ED039AE4
:1074D00080F18A8084ED018AC4ED008A95ED02AACC
:1074E000D5ED03AA6AEE49BA2AEEC9CA2AEE4B7A4A
:1074F0006AEECB7A37EE4C7A77EEAB7AB1EE4AAAE7
:10750000F4EE477AF1EE10FAF1EE6AAA5DD629EEB2
:107510008A0A69EEAA0A30EE4C0A70EEAB0A39EE1E
:10752000877A77EE897AB4EE600AF1EE10FA84ED8C
:10753000047AC4ED057A3DD628EE8A6A28EE2A5AE6
:1075400068EE0A6A68EEAA5A38EE807A78EE207AF7
:1075500036EE450A76EEA50A84ED027AB4EE600AAC
:10756000F1EE10FAC4ED037A19D6BDEC0A8B84ED66
:10757000000AC4ED010A38BDF0EE691AB0EE691ACE
:10758000F0EE6B0AB0EE6A0A14F020FD30EEA99A14
:1075900030EE29BA84ED059A84ED04BA88E7F0EE5E
:1075A000481AB0EE681AF0EE6A0AB0EE4A0A14F011
:1075B0000DFDDAE7F0EE491AB0EE691AF0EE6A0A4C
:1075C000B0EE4A0A14F002FDB6E7F0EE491AB0EE4A
:1075D0004B1AF0EE6A0AB0EE4A0A14F0F7FCB0EE6D
:1075E000407AF0EE607A92E7DFED071AF0EE6B0A70
:1075F000B0EE6A0A14F0EAFCF0EE408AB0EE608A5F
:1076000068E700BFB4E2010000000000284BDFED96
:10761000291A5A684A6010B5D3F800C09A68DB6826
:10762000C1F800C08A60CB602DED068B90ED019A09
:1076300090ED008A69EE618AF1EE489A28EE618A3F
:107640000C4638EE680A78EE880AB1EE49AAF4EEE4
:10765000400AF1EE10FA1BD6DFED161AB7EE001A4B
:1076600030EE017A70EEA17A39EEE80A78EE490A36
:1076700084ED027AF4EE400AF1EE10FAC4ED037ADA
:107680000FD6BDEC068B84ED000AC4ED010A10BDD7
:10769000B0EE611AF0EE4A0AB0EE690A14F096FCF8
:1076A000DAE7F0EE4A0AB0EE690A14F08FFCE8E778
:1076B000B4E201000000000070B507EE900A2DED65
:1076C0000C8BB8EE679A07EE902AF8EE677ADFED3A
:1076D000D19AD14AC7EE898A82B00C4601931170C3
:1076E00028EEA90A10F0F8FB012C80EE298A00F0A0
:1076F000AB81DDED017A9FEDD2AAF8EE677A28EE34
:107700000A8AC7EE89AA2AEEA90A10F0E5FB80EEE4
:10771000299A29EE0A9A68EE097AF5EE407AF1EE96
:1077200010FA00F16382B1EEE70A39EE488AF6EE0C
:10773000007A28EE278ADFEDC30A68EE20BAB1EEA0
:1077400048CAB0EE4C1AF0EE6B1A14F09FFD60EED2
:10775000007A20EEA07A20EE809A77EEC77A39EE92
:10776000099AB0EE401AB4EE679AF1EE10FAF0EE14
:10777000601A80F13482F7EE009A79EEE77A17EE1C
:10778000900A14F03BF8F1EE497A02460B4617EEE8
:10779000900A43EC1D2B14F031F8B0EE4D0AF0EED8
:1077A0006D0A41EC110B10F013F951EC100B55EC74
:1077B000114B14F053FB2946034620460CEE903A39
:1077C00014F04CFB7CEEA99A09EE100A2CEE29AAC3
:1077D0002BEE897A2CEE09BA6BEEA97A3AEE47AA1B
:1077E0003BEE27BAB4EE4ABAF1EE10FA80F1E88126
:1077F000B7EE000A30EE6C0A29EE6B7A29EE088AA1
:107800006CEE009A6BEE807A79EEC79A38EE278A92
:10781000824CF4EE489AF1EE10FA84ED00AA84ED61
:1078200001BAB1EE499A80F1BE81B0EE009A39EE0C
:107830004A1A3AEE090AF1EE4B1AC4ED029A84EDA7
:10784000038AF0EE4B0A14F021FD754D754CB0EE35
:10785000407AF0EE607A39EE691AF1EE481A85ED59
:10786000007AC5ED017A39EE890AF0EE480A14F083
:107870000DFD6D4B6D481A68596802601A695B69A5
:10788000C5ED030A8260C36085ED020A4160684964
:10789000FFF7DAFD21462846FFF7D6FD94ED049A5E
:1078A000D4ED009A94ED02AADFED5A6A614A624B68
:1078B00089EE897ACAEE097A78EEAA8AF1EE677AB9
:1078C00068EEA68AB1EE477AB0EE680AC3ED007A98
:1078D00082ED007A10F0C6FAB0EE40BAB0EE680A57
:1078E00010F088FADFED571A2BEE218A70EE08AA05
:1078F0006AEEA17A77EEC88A38EE278AB4EE688AF3
:10790000F1EE10FA80F14281494DD5ED047AD5EDC2
:10791000051A78EEA77A78EE211A2AEEA71A6BEEEE
:10792000216A6BEE270A2AEEA17A31EE661A70EE12
:10793000870AF4EE410AF1EE10FA80F11C81D5EDD0
:10794000027AD5ED031A31EE271A70EEA11A2AEE4B
:10795000817A6BEE216A6BEE010A6AEEA17A37EE4C
:10796000667A70EEA70AF4EE470AF1EE10FA80F19B
:10797000F980D4ED051AD5ED006A39EE289A38EE73
:10798000218A2AEE891A2BEE086A6AEE887A6BEE53
:10799000091A31EE461A77EEA17AD5ED018AB4EED6
:1079A000671AF1EE10FA77EE26BA70EEA88A80F127
:1079B000CA80D4ED031A3AEE01AA77EEA17A2AEE34
:1079C0008A1A6BEE276A6BEE0A0A6AEEA71A31EE84
:1079D000661A70EEA10AF4EE410AF1EE10FA80F197
:1079E000A580D4ED011A39EE811A70EEA11AB0EE1D
:1079F0006B0AF0EE680A14F049FC10F0D1FAB7EE09
:107A0000007AC7EE007A0D4BC3ED007A02B0BDECF0
:107A10000C8B70BDDB0F4940EC0E0020001F0020D6
:107A2000401F0020D40E0020B4E20100501F0020AF
:107A3000101F0020301F0020341F0020F00E0020F7
:107A4000DB0FC940000000001FED030A5FED038A51
:107A5000744BDFED750A754DC3ED010A28EE008AFF
:107A6000B0EE000AF1EE487A38EE001AC3ED007A63
:107A7000F0EE681A30EE480A14F008FC6C4B6D48C2
:107A80001A686D4E5B686D4C43600260294686ED56
:107A9000000AC6ED010AFFF7B9FD30462146FFF79F
:107AA000B5FD94ED009A94ED028AD5ED030A95EDAB
:107AB000020A634BC9EE086A70EEA80AB0EE407A7B
:107AC00010EEE87A60EE287AF1EE666A77EEE07AF8
:107AD000C3ED006AF4EE477AF1EE10FA80F18B8084
:107AE000DFED581AD4ED030AD5ED005A95ED016A81
:107AF00070EEA10AB0EE481A10EEE11A68EE216AA3
:107B000077EE258A76EEE06A77EE869AF4EE416AA1
:107B1000F1EE10FA7AD6D4ED011A39EE011A76EEAA
:107B2000A11AF0EE690AB0EE680A64E7B0EE4A1AEC
:107B3000F0EE671AF0EE4B0AB0EE6A0A14F046FA5D
:107B4000B0EE401A4DE7B0EE491AF0EE481AF0EEEA
:107B50004B0AB0EE6A0A14F039FAB0EE401AF0EEB1
:107B6000607A26E7F0EE4B0AB0EE6A0A14F02EFABD
:107B7000B0EE407AFDE6B0EE671AF0EE4B0AB0EEDA
:107B80006A0A14F023FAB0EE401AD8E6B0EE611A91
:107B9000F0EE4B0AB0EE6A0A14F018FAF0EE408AE2
:107BA000B0EE608AB0E6F0EE6B1AB0EE4C1AF0EE72
:107BB000490A14F00BFAF0EE409AB0EE608A34E60F
:107BC00000EE900AF0EE6B1AB0EE4C1AB0EE690AB5
:107BD00014F0FCF9B0EE40AAB0EE60BA08E614F07A
:107BE000F5F9F0EE407AB0EE609AC4E5B0EE670ABF
:107BF00010F0DCFA99E5F0EE681ABFEE001A14F006
:107C0000E5F9B0EE407AF0EE607A69E7BFEE001A6F
:107C1000B0EE480A14F0DAF9B0EE401AF0EE606AFD
:107C200079E700BF001F002000000080101F002027
:107C3000B4E20100501F0020401F0020D40E00209D
:107C4000301F002000000000034BD3ED007A27EE28
:107C5000800A83ED000A7047F00E00202DE9F04FF6
:107C60002DED028B89B0012A8446019140F0688194
:107C7000A24AD2ED004AA24AF5EEC04AF1EE10FA4D
:107C8000127840F39D80012A9E4A1268B3FBF2F1FC
:107C900000F08C8293420591C0F05B83130904933A
:107CA000994B029393ED002A984B069393ED004A6B
:107CB000974BDFED988A93ED008A974B0393D3EDB2
:107CC000002A964B0793D3ED007A954BDFED951A7A
:107CD00093ED000A944BDFED953AD3ED000A944BF7
:107CE000944993ED001A002322F00F0918469B4691
:107CF0009A46049A002A00F0D181019B8E4E0BF126
:107D00000044013C0CEB4402B0EE683AB0EE686A05
:107D100003EB440400251FE0FDEEE76AB0EE677A4E
:107D2000CDED006ABDF90030F7EC016A2EF8023F94
:107D300021EE066A26EE877A904537EE067A37EE10
:107D4000456A40F09E811035A94506F1400604F1D0
:107D5000200400F0A7804246B0EE627AF0EE426A5C
:107D6000B0EE435AF0EE672AB0EE442AB0EE463A3F
:107D7000A646374602F1200832F9023F60EE075A64
:107D800007EE103AB8EEC77A60EEA77A27EE084AF7
:107D900047F6FF7374EE666AB0EE617A76EEA56A16
:107DA00076EEA77AF4EEE17AF1EE10FABCDCF4EEAE
:107DB000E37AF1EE10FAAFD5B0EE637A0B46B3E793
:107DC000012A00F072811B0900F0C1821E015B4B89
:107DD0004D4A1B884D49D2ED005A029203EE903A6B
:107DE0004B4B019A93ED002A4B4B039393ED005AB2
:107DF0004A4B0793D3ED007A494BD1ED006AD3ED9E
:107E0000002A494B9FED476ADFED481A93ED003A8F
:107E1000484C069100F11E0CF8EEE33A0020951E46
:107E20000746B0EE657AACF12003294614E0FDEE7A
:107E3000E74AB0EEE77ACDED004ABDF9002021F81F
:107E4000022FF4EE473AF1EE10FA98BF01209C455C
:107E5000B0EE657A00F0838133F9022FF0EE665AB6
:107E600006EE902AF8EEE66A22EE854A66EE826A0F
:107E700063EE274A36EEC77AB0EE675A77EE047A99
:107E800047F6FF7274EEA77AB0EE467AF4EEC67A41
:107E9000F1EE10FAD3DCF4EEE17AF1EE10FAC6D589
:107EA0002246CCE726EE067A63EE036ACB4477EEF1
:107EB000266A012321EE067A059A27EE037A0AF153
:107EC000010A36EEC77AF4EE474AF1EE10FA48BFDF
:107ED00001209245FFF40DAF5BB1029B83ED002AB8
:107EE000039BC3ED002A069B83ED004A079BC3ED6D
:107EF000007A09B0BDEC028BBDE8F08FF80E0020CF
:107F0000EC0E0020FC0E0020281F00202C1F00205B
:107F1000F00E002000000000381F00203C1F002051
:107F2000301F002000FEFF46341F002000FEFFC669
:107F3000F40E00200180FFFF000F0020D00E002073
:107F4000002B00F00482B549069191ED004A019999
:107F5000DFEDB35A9FEDB32ADFF8F8E2DFF8E892DD
:107F60008D1EB149098804EE901AB04991ED003A8E
:107F7000AF49079191ED005AAE49D1ED003AAE49B3
:107F8000D1ED002AAD490291D1ED006AAC490391CF
:107F90004FF00008C2EBC276F8EEE44A91ED006AB9
:107FA00000EB420C76005700404644469FEDA57A10
:107FB00006EB0C014AB131F902AB07EE90AAF8EEDC
:107FC000E77A8C4537EE277AF5D19EF8001023EE3C
:107FD000077A012926EE236A77EE667A3CD137EEDE
:107FE000866AF0EE476AF0EE467AF4EEE57AF1EE54
:107FF00010FA2CDCF4EEC27AF1EE10FA3DD4BDEEAC
:10800000E77AF0EEE77A17EE101A09B2F4EE674A53
:10801000F1EE10FA144498BF0120A34225F8021F84
:10802000BC44C3D8029BC3ED006A039B83ED006A86
:10803000B8F1000F3FF45DAF069B83ED004A079B4C
:1080400083ED005A09B0BDEC028BBDE8F08FF0EE75
:10805000657A47F6FF71D9E765EE226A77EE867A90
:108060004FF0010877EEA67AB0EE456AF0EE446A6A
:10807000B0EE675AB0EE474AB7E7F0EE657A494688
:10808000C4E7B0EE627AF0EE426AB0EE435AF0EE28
:10809000672AB0EE442AB0EE463A6DE6F0EE686A22
:1080A000B0EE683AB0EE686A04E71B0900F04F8151
:1080B000624A02921C015C4BDFED595A1B88DFEDCE
:1080C000593A614D1146594AD1ED007A92ED004A74
:1080D0005B4A039205EE103A564B92ED007A019AF4
:1080E000D3ED004A00F11E0CB8EEC55A0020971ED1
:1080F0000646ACF12003394611E0FDEEC76AB0EE4A
:10810000C76ACDED006ABDF9002021F8022FB4EE58
:10811000465AF1EE10FA98BF0120634538D033F982
:10812000022FF0EE676A07EE902AF8EEE77A27EE64
:10813000247A67EE847AB0EE656A77EEE66A47F6EF
:10814000FF7236EE877AB4EEE57AF1EE10FADCDCF7
:10815000B4EEE37AF1EE10FACFD52A46D5E7103720
:10816000BE420CF1200C05F120057FF45AAE029BB3
:10817000C3ED005A039B83ED005A069BC3ED006AD2
:10818000079BC3ED007A09B0BDEC028BBDE8F08F10
:108190001036A64203F1200C07F12007A9D1029B5B
:1081A000C3ED007A039B83ED007AA2E6934204912B
:1081B000C0F0CF8013090593204B0293D3ED005AF2
:1081C0001A4B9FED201AD3ED001A1D4B0393D3EDEC
:1081D000007A184BDFED123A93ED002A1B4B9FED0E
:1081E000117AD3ED002A1849002322F00F099A468C
:1081F0009B469846059A002A00F0A280019B1448ED
:108200000AF10046013E0CEB4602B0EE414AF0EEA8
:10821000416A03EB460600273BE000BF2C1F00200D
:1082200000FEFF4600FEFFC6D00E0020F00E00202C
:108230003C1F0020301F0020341F0020281F00207A
:10824000381F0020000000000180FFFFF40E002016
:10825000000F0020EC0E0020BDEEE75AB0EE676A7A
:108260008DED005ABDF90030B4EC015A25F8023FFB
:1082700062EEA66A25EE066A724576EE866A76EEAC
:10828000C36A30D110374F4500F1400006F1200697
:1082900030D0B0EE443AB0EE655AB0EE664A35469C
:1082A000044602F1200E32F9023F05EE903AF8EE54
:1082B000E55A62EE277A65EEA15AB0EE636A35EEB2
:1082C000C55A47F6FF7377EE857AF4EEE37AF1EE5E
:1082D00010FAC9DCF4EEC77AF1EE10FABCD5B0EEB4
:1082E000476A0B46C0E7B0EE443AB0EE655AB0EECE
:1082F000664AD8E726EEA66A24EE045ACA4436EE49
:10830000056A012362EEA66A049A66EE846A0BF19E
:10831000010B76EE666AF4EE664AF1EE10FA48BF9B
:108320004FF001089345FFF465AF4046002B3FF442
:10833000E0AD029BC3ED005A039BC3ED007AD8E584
:10834000B0EE416AB0EE414AF0EE416ADAE7184613
:10835000CFE50020CDE500BFA44BF0B51C68B1FB14
:10836000F4F68C4200F23781A14AA24BD2ED007A9A
:10837000D3ED004A9FEDA05A4FF0000E2509F446B8
:1083800024F00F04002D00F0288100EB4C039B4AE1
:10839000A444F0EE456AB0EE457A00EB4C01B3F927
:1083A000007092ED006AD2ED013A05EE907AF8EE97
:1083B000E55AB3F9027027EE274A65EE865A06EEB3
:1083C000107A75EE845AB8EEC66A75EEE66AB3F9AD
:1083D000047027EEA64A26EE236A05EE907A36EE62
:1083E000046AD2ED023AB3F9067036EE477AF8EE37
:1083F000E55A27EE874A65EEA35A06EE107A75EE27
:10840000845AD2ED033AB3F9087075EEE65AB8EE25
:10841000C66A27EEA54A26EE236A06EE907A36EE65
:10842000046AD2ED043AB3F90A7036EE476AF8EE00
:10843000E66A27EE864A66EEA36A07EE107A76EEC3
:10844000846AD2ED053AB3F90C7076EEE55AB8EECF
:10845000C77A27EEA54A27EE237A06EE907A37EE02
:10846000047AD2ED063AB3F90E7037EE466AF8EEAA
:10847000E66A27EE864A66EEA36A07EE107A76EE83
:10848000846AD2ED073AB3F9107076EEE56AB8EE79
:10849000C77A27EEA64A27EE237A05EE907A37EEC2
:1084A000047AD2ED083AB3F9127037EE467AF8EE54
:1084B000E55A27EE874A65EEA35A06EE107A75EE66
:1084C000845AD2ED093AB3F9147075EEE66AB8EE43
:1084D000C66A27EEA64A26EE236A05EE907A36EEA5
:1084E000046AD2ED0A3AB3F9167036EE477AF8EE1E
:1084F000E55A27EE874A65EEA35A06EE107A75EE26
:10850000845AD2ED0B3AB3F9187075EEE65AB8EE0C
:10851000C66A27EEA54A26EE236A06EE907A36EE64
:10852000046AD2ED0C3AB3F91A7036EE476AF8EEE7
:10853000E66A27EE864A66EEA36A07EE107A76EEC2
:10854000846AD2ED0D3AB3F91C7076EEE55AB8EEB6
:10855000C77A27EEA54A27EE237A06EE907A37EE01
:10856000047AD2ED0E3AB3F91E7037EE466AF8EE91
:10857000E66A27EE864A66EEA36A07EE107A76EE82
:10858000846AB8EEC77A92ED0F4A76EEE56A27EE76
:10859000047A67EEA65A203337EE257A994237EEF1
:1085A000467A02F140027FF4FAAE27EE076A66EEE1
:1085B000A65A36EE256A27EE277A27EE267A36EE79
:1085C000477AF4EEC74AF1EE10FA0DD40EF1010E1F
:1085D00076453FF6D7AE0020F0BDB0EE456AF0EE2E
:1085E000456AB0EE457AE6E70120F0BDFC0E0020BA
:1085F000F40E0020F80E002000000000000F002004
:1086000042088A4228BF0A4600230121FFF754B8D6
:108610004FEA500C614528BF61469445634628BF28
:10862000134699420BD30B4A0B490C4BDFF830C071
:10863000C2F800C00020012208601A7070479445FB
:1086400003D90A460021FFF737B80A460023012163
:10865000FFF732B8301F0020F00E0020EC0E002093
:10866000000080BF014B1880704700BFD00E002073
:10867000F8B52F4B2F4F2DED088B9FED2F8A1860EB
:108680000AEE101A09EE902AF0EE40AA30B3431E0B
:1086900008EE903A294DDFED2ABA9FED2ABA9FEDF8
:1086A0002A9AF8EE688A0646002407EE904AF8EE09
:1086B000E77A013467EEAB7A87EEA80A0FF09AFBEF
:1086C000A64260EE0B7A79EE677A38EE278AE5ECFF
:1086D000017AEAD1DFED1D7A28EE278ADFED1C7AD8
:1086E000F4EEE7AAF1EE10FA1FDA28EE088A28EE77
:1086F0002A8A88EE277A67EE2AAA8AEEA77ADFED21
:10870000107A87ED007AF8EE699AB8EE4A0A69EEB7
:10871000A79A89EE800A0FF06DFBBDEC088B0D4B1C
:1087200030EE000A83ED000AF8BD9FED0B7AE6E714
:10873000FC0E0020F80E002000000000000F0020BA
:10874000DB0FC9401F85EB3E713D0A3F00FE7F46AF
:108750000000C842F40E0020FFFF7F7F38BBF0B559
:108760004C4D2878830783B001D503B0F0BD0DF0E0
:10877000DDFC0DF0A1FE0A24FF200DF087FC611E38
:1087800011F0FF04F8D1214620460DF0EDFD01283F
:1087900006460ED0404B00221A600DF085FC0DF00D
:1087A000CBFC287840F00100287003B0F0BD012018
:1087B00070474FF47A700DF0AFFE4FF4D57108207A
:1087C0000DF0D2FD01283AD101AF02AE3C46FF20A8
:1087D0000DF05CFC04F8010BA642F8D19DF80630C0
:1087E000012BD7D19DF80730AA2BD3D102E00DF091
:1087F000BBFD38B10DF09CFE03464FF08041A9202F
:10880000002BF4D00DF094FE01460028C2D13A208E
:108810000DF0AAFD0028BDD1FF200DF037FC07F8B0
:10882000010BB742F8D19DF8043013F0400F1A4BFA
:1088300014BF0C2204221A600DF036FC21E0214600
:10884000A9200DF091FD022836BF02240124A9269B
:1088500002E00DF089FD28B10DF06AFE01463046B8
:108860000029F6D00DF064FE002893D14FF400717A
:1088700010200DF079FD00288CD1074B1C600DF005
:1088800013FC2B7823F001032B700DF025FE2878C4
:1088900003B0F0BD50000020601F002010B9024B53
:1088A00018787047012070475000002038B550BB41
:1088B0001C4643B31E4B1B78D80727D41D4B1B689F
:1088C0001B0758BF5202012C0D46114621D0122021
:1088D0000DF04AFD38B101240DF0E6FB204638BD0D
:1088E00014F0FF040AD028464FF400710DF064FC28
:1088F000013C05F500750028F2D1012400210C206F
:108900000DF032FDE8E70424204638BD032420465C
:1089100038BD11200DF028FD0028DDD14FF4007185
:1089200028460DF049FCB0FA80F46409D4E700BF92
:1089300050000020601F002030B583B0002834D1E3
:108940001C46002B31D0294B1B78DD0731D458074A
:1089500033D4274B1B680D46190758BF5202012C10
:1089600036D013F0060F2CD1114619200DF0FCFC67
:1089700040B101240DF098FB204603B030BD13F048
:10898000FF0408D02846FC210DF076FC05F50075A3
:10899000631E0028F3D1FD2100200DF06DFC00289E
:1089A000E7D0003C18BF0124E4E70424204603B0CC
:1089B00030BD0324204603B030BD0224204603B05E
:1089C00030BD2146972001920DF0CEFC019ACBE7F5
:1089D000114618200DF0C8FC0028CAD1FE212846F7
:1089E0000DF04AFCB0FA80F46409C3E7500000209F
:1089F000601F002070B586B090B9824B187810F0D7
:108A0000010440F0B98015460E290DD8DFE801F0C9
:108A1000121B4E520C0C0C0C750C787C8A91A20027
:108A20000424204606B070BD04240DF03DFB204612
:108A300006B070BD01910DF049FB0199002840F08E
:108A4000C1800124F1E7002109200DF08DFC0446CE
:108A50000028F6D1102102A80DF0AEFB0028F0D0BE
:108A60009DF808309B09012B00F0B2809DF80F3073
:108A70009DF80E109DF810009DF80D209B008902B6
:108A800003EB901301F440610B449DF811109DF825
:108A9000120002F00F02490001F0060102EBD012B1
:108AA0000A440133073A93402B60BEE74FF400734A
:108AB0002B80BAE7544E316811F0040160D00021D8
:108AC0008D200DF051FC0028BBD1FF200DF0DEFA07
:108AD000102102A80DF070FB0028B2D03024FF2036
:108AE0000DF0D4FA601E10F0FF04F8D19DF81220AA
:108AF0001023120993402B6097E701221A7094E724
:108B0000414B1B682B7090E7002109200DF02CFCD5
:108B1000002896D1102128460DF04EFBB0FA80F4C3
:108B2000640982E700210A200DF01EFC002888D18C
:108B3000F0E700213A200DF017FC0446002880D110
:108B40006E1E0335FF200DF0A1FA06F8010FAE42AC
:108B5000F8D16AE700218D200DF006FC00287FF493
:108B600070AFFF200DF092FA402128460DF084FBF3
:108B7000B0FA80F4640958E70324204606B070BDBB
:108B800009200DF0F1FB044600287FF45AAF1021B4
:108B900002A80DF011FB00283FF453AF33689B0788
:108BA00020D59DF812309DF813109DF815205B001C
:108BB00003F07E0303EBD11392090133013A934092
:108BC0002B6032E701910DF06FFA01990C462CE70A
:108BD0009DF810209DF8113003EB022301339B0216
:108BE0002B6022E79DF813109DF81230CA0002F0A6
:108BF0001802C3F3840302EB5112013302FB033367
:108C00002B6012E750000020601F0020036823F053
:108C100001030360704700BF036843F00103036072
:108C2000704700BF436842EA011123F0F70319437C
:108C30004160704700F1424202F58012520110B4C7
:108C40004B7A91F800C0002414600C7A1B0443EAAC
:108C500044434C6843EA04638C7A43EA0423CC7AA5
:108C600043EA04130C7B43EA84034C78A40744EAE8
:108C7000CC7423430C6991F80DC0097D0360240274
:108C800044EA0C4444605DF8044B1160704700BF37
:108C900070B50C7905460E46164824BB00F018FC4A
:108CA000154B164C1844A4FB0024E40D984288BFD1
:108CB00004F1FF34E4B20A236B607378327871797F
:108CC0001B0143EA0263B2781343F27812042402D0
:108CD00002F4FE02134304F4FE44234309B143F0BB
:108CE00008032B6070BD00F0F3FB024800F0F0FBBE
:108CF000E1E700BF408104003F5DC600A5E830A564
:108D0000384B02224260984210B5426B91F802C083
:108D10001ED04B780A781B0543EA02730A7943EAAE
:108D20000223CA7843EA02138A790AB143F08073B6
:108D3000CA790AB143F004034A790AB143F0020345
:108D40000A7A0AB143F0010343EA0C43C36010BD41
:108D500022F4FE4222F07F02BCF1060F0BD8DFE8BE
:108D60000CF034271B0D0A0A04001F4BD3F8BC314A
:108D700003F07F031A431B4B5A63CAE71A4CD4F81B
:108D8000B831D4F8B8411B0C03F4FE43C4F3064ECB
:108D900043EA0E031A43EEE7134CD4F8B831D4F883
:108DA000B84103F4FE4304F07F0423431A43E2E78F
:108DB0000D4CD4F8B431D4F8B4411B0C03F4FE4389
:108DC000C4F3064423431A43D5E7074CD4F8B4311F
:108DD000D4F8B44103F4FE4304F07F0423431A4360
:108DE000C9E700BF002000400080E00FB0F5FA4F57
:108DF00010B50B4C38BF4FF4FA40844228BF0446EC
:108E000049B1601E0144A142B1FBF4F028BF00F15A
:108E1000FF30C0B210BD034800F05AFB0146F0E736
:108E2000405DC6004081040000230A214FF4F8127F
:108E30004160C36003610260194A436110B440F2AB
:108E4000477140F2033404629042C163436B03D024
:108E5000436B5DF8044B7047124923F4FE42D1F88E
:108E6000B431D1F8B44103F4FE4304F07F0423434A
:108E700022F07F0213434363436BD1F8B421D1F84E
:108E8000B4115DF8044B02F4FE4201F07F0123F0BF
:108E9000FE430A4323F4FE0343EA0243436370475D
:108EA000002000400080E00F08B570B10A4A0B4B6B
:108EB000904228BF104600F5742000F23F20A3FB2B
:108EC0000030800C0138C0B208BD054800F000FB3E
:108ED0000028EBD108BD00BF0048E80183DE1B433A
:108EE00040810400836810B40478B3FA83F3C3F1BB
:108EF0001F0C1CB1194B0122C3F8002718498B6BBA
:108F0000DA0706D40B6813F4405F02D0CA6BD307AC
:108F1000FCD4134A837C5360C168838843EA4113BD
:108F2000417841F008010B43817843EA8103417C99
:108F300043EA0113017C43EA813343EA0C234FF0F7
:108F4000FF31116313602CB1044B12680021D9600A
:108F5000C3F800175DF8044B704700BF00000243E0
:108F600000100840064A936BD80706D4136813F420
:108F7000405F02D0D36B9B07FCD4014BD960704794
:108F80000010084008B500F00F03013B062B07D87E
:108F9000DFE803F0245C780606043800494B1B68C0
:108FA000494B98420FD0494B98420AD1454B9B6A96
:108FB000C3F38103013B022B7FD8DFE803F0361FA8
:108FC0004000002008BD3F4B9B6A03F00303013BB8
:108FD000022B69D8DFE803F029123300394BDB6A32
:108FE00003F47053B3F5805F23D0B3F5005FD7D19E
:108FF000354B9842E7D0354B9842D7D0BDE8084072
:109000000EF0E0BC2F4BDB6A03F46033B3F5803F16
:10901000EED0B3F5003F0CD0B3F5004FC0D02A4BD3
:109020009842D0D0294B9842C0D0BDE808400EF0FD
:10903000C1BC254B9842C6D0244B9842B6D00EF006
:10904000CDFB234B9B6F0133D84008BD1D4A936A6B
:1090500003F00303013B022B22D81B4A1D49904217
:10906000C95CB0D0194B9842A0D001390229A8D8C8
:1090700001A353F821F000BF2B900000FD8F0000EA
:109080003F9000000F4A936A03F00C03082BAFD007
:109090000C2B85D0042BCCD0936ADB02BFD57FE7A5
:1090A000936ADA03BBD57BE7064A906A1023D8405F
:1090B00088D0BDE808400EF081BC024A1423906AB3
:1090C000F5E700BF00800C4002001A0003001C00FE
:1090D00000009043CCE2010070B5C0F303156B1E95
:1090E0000C46062B0FD8DFE803F02A0E0E043F5281
:1090F0000F00A34B9A68B1FA81F1C1F11F0422F06D
:109100000F012143996070BD9E4B984200F0F98099
:1091100003F504339842F6D1994A536DD90702D426
:10912000136D5B06FCD496490A6FB4FA84F3C3F15D
:109130001F0322F0300242EA03130B6770BD0EF0EA
:10914000BDFB914B41F67132DE6BDA635A6812F067
:10915000060F04F1FF3102F0070337D18B4B984221
:1091600040F2E58004203EE00EF0A8FB864B41F67D
:109170007132DE6BDA635B6813F0060F03F00702EF
:10918000824B65D1984240F2DA8004226BE0804B3A
:10919000984200F0228103F5AF13984200F00B8152
:1091A0007C4B9842AFD1764A536DDE0702D4136DE3
:1091B0005D07FCD4724A936EB4FA84F1C1F11F01C9
:1091C00023F0F00343EA0113936670BD042BC5D06E
:1091D0006E4B984200F2A9806F4A704B02449A424B
:1091E0002CBF02200320684D6A6822F00702024368
:1091F0006A600EB10023EB636148026822F4E0323A
:1092000042EA813101600EF0E9FA5F4B41F67132BA
:10921000DC6BDA635B6813F0060F03F007025B4B4D
:1092200040F0A180984200F2C4805B4B5B4A03444B
:1092300093422CBF0022012253494B6823F00703BD
:1092400013434B60002C3FF45EAF0023CB6370BD33
:10925000042A97D0984266D84F4B504A0344934211
:109260002CBF0222032248494B6823F00703134313
:109270004B600EB10023CB630EF024FB484BB0FBD8
:10928000F4F0984240F29280464B0122984294BFFB
:109290004FF480704FF40070434B394E9A677268F8
:1092A00022F4807210437060B4FA84F1C1F11F049B
:1092B000716821F00F01214371600EF08FFA324B7B
:1092C00041F67132D96BDA635B6813F0060F03F075
:1092D00007022E4B3BD1984200F292802E4D2F4B2D
:1092E00005449D422CBF00250125274A536823F0E1
:1092F00007031D43556000293FF405AF0023D363E6
:1093000070BD1F4A536DDD0702D4136D5806FCD49F
:109310001B4A136FB4FA84F1C1F11F0123F0030358
:109320000B43136770BD2A469DE705205BE71A4A89
:109330001A4B02449A422CBF0020012053E7164BDF
:10934000164A034493422CBF002201228BE7042AD1
:10935000C1D09842C9D8104D104B05449D422CBF36
:1093600002250325C1E7042A3FF45CAF984249D89F
:10937000094B0A4A034493422CBF022203225BE7B3
:1093800000800C407007160000000C400048E80107
:109390006026140060161000FFDB0BFF0024F400B1
:1093A00000366E01006CDC02000090430020024693
:1093B00072E7042240E7144A536DDB0702D4136DB1
:1093C0005E07FCD4104A936EB4FA84F1C1F11F0118
:1093D00023F003030B43936670BD0B4A536DD8070C
:1093E00002D4136D5907FCD4074A936EB4FA84F182
:1093F000C1F11F0123F4706343EA0123936670BD3A
:10940000042572E7052217E700800C4038B5C0F349
:109410000323013B04460D46092B0CD8DFE803F07B
:109420000C10140B0B2D3B0B0B051F4AC0F304341F
:109430001444A400256038BD1C4AC0F30434F7E787
:109440001B4AC0F30434F3E70EF0C8F9194B9842F5
:1094500027D9194B0122984294BF4FF480704FF4E2
:109460000070164B16499A674B68164A23F48073AE
:109470001843C4F304344860DAE7134AC0F30434F1
:109480004FF0010C0E48436DDB07D1D4036D13EA96
:109490000C0FFBD1CCE70D4AC0F304344FF0100C95
:1094A000F0E700200246DCE7C003E4104000E410CF
:1094B0002002E41000366E01006CDC0200009043D4
:1094C00000800C400002E410C002E4100003E4102D
:1094D00000F47810B0F5A01F08B550D01DD9B0F534
:1094E000E01F55D00ED9B0F5081F56D0B0F5281F93
:1094F00060D16648FFF746FD654B9B6E03F00303A2
:10950000D84008BDB0F5C01F56D0B0F5D01F17D158
:10951000BDE808405D48FFF735BDB0F5402F54D099
:109520001AD9B0F5602F67D0B0F5801F42D15748E7
:10953000FFF728FD564B9B6EC3F30313D84008BDBD
:10954000B0F5B01F36D15348FFF71CFD504B1B6FD1
:1095500003F00303D84008BDB0F5003F72D0B0F56A
:10956000802F07D10EF0AEF9494B9B6803F00F0333
:10957000D84008BDF0B9BDE808400EF0A3B9434893
:10958000FFF700FD424B9B6EC3F30323D84008BD99
:10959000BDE808403F48FFF7F5BC3D4BDB6A03F4EC
:1095A0006033B3F5803F62D0B3F5003F50D0B3F5E0
:1095B000004FE0D0002008BD3648FFF7E3FC344BF5
:1095C0001B6FC3F30113D84008BD314B186810F06E
:1095D0008050D0D15B6903F4E063B3F5407F4AD09B
:1095E0003CD8B3F5807F37D0B3F5007F12D02A4A3C
:1095F000002B08BF104608BD254B5B6903F4E063F0
:10960000B3F5407F37D00FD8B3F5807F24D0B3F5C2
:10961000007F12D1214B2248D3F8FC20214BB2F11C
:10962000985F28BF184608BDB3F5C06F0ED0B3F5DC
:10963000E06F1D4818BF002008BD002B164818BF5A
:10964000002008BDBDE808400EF0C8B8174808BDA6
:10965000BDE808400EF0AEB9154808BDB3F5C06FBF
:10966000F4D0114AB3F5E06F08BF104608BDBDE85D
:1096700008400EF0A7B9094B0E48D3F8FC200E4B5A
:10968000B2F1985F28BF184608BD00BF02001A005B
:1096900000800C4003001C00809FD5000081E00F7B
:1096A000C0CF6A0040B56400406F4001003FAB018D
:1096B000C0D8A70040420F00804F120000F00F00FA
:1096C0000138062815D8DFE800F0162630141441BA
:1096D0000400294BDB6A03F46033B3F5803F3FD0CD
:1096E000B3F5003F3AD0B3F5004F14BF0120092075
:1096F000704700207047204BDB6A03F47053B3F5CA
:10970000805F2BD0B3F5005F2AD0B3F5006F14BF94
:10971000052004207047184A936A03F00303013BB5
:10972000022B1FD8154AD05C7047134A936A03F086
:109730000C03082B14D00C2B1BD0042B0ED0936AD7
:1097400013F4801F0CBF01200A2070470A4B1B68CE
:1097500013F0805F0CBF072009207047032070477B
:1097600002207047936A13F4803F0CBF01200A2047
:1097700070470620704700BF00800C40CCE201001B
:1097800070B500F00F04631E062B0BD8DFE803F062
:10979000260B0B0A0A2F040003294FD0092946D0B3
:1097A000022934D070BD01390929FBD801A353F82F
:1097B00021F000BF159A000097990000C59900009C
:1097C000A5970000A5970000DD990000A59700006F
:1097D000A5970000A59700001D9A000002390329F3
:1097E000E0D8DFE811F09E003A00B500A900072993
:1097F00007D00929D6D19D4A136843F080531360DE
:1098000070BD9A4A136823F08053136070BD974B64
:10981000974A4FF480711962D2F8A435002BFBD01F
:10982000924A40235362D36AD803FCD570BD8F4A55
:1098300020235362D36A1B04FCD570BD8B4B8C4A2A
:1098400040211962D2F89C35002BFBD0874A602357
:109850005362D36A9903FCD570BD864A4023032521
:1098600082490B621368002BFCD00EF027F8824B64
:1098700041F67132DE6BDA635B6813F0060F03F0BA
:1098800007027E4B52D198427BD87D4B7D4A0344E0
:1098900093422CBF0022012277494B6823F0070333
:1098A00013434B600EB10023CB63704B5D620DF030
:1098B00095FF754B984240F2C480744B984294BF18
:1098C0004FF480704FF40070694B684A9C6753688E
:1098D00023F48073184350600DF080FF664B41F60F
:1098E0007132DC6BDA635B6813F0060F03F007027A
:1098F000624B40F09980984200F2B080604B614A20
:10990000034493422CBF002201225B494B6823F0A1
:10991000070313434B60002C3FF444AF0023CB6399
:1099200070BD5B4A4FF48073042599E7042AAAD0DE
:10993000984228D90522AFE74D4B4C4901229A673E
:109940004B68544A43F480734B602546234687E7AF
:10995000474B464D01229A676B6843F480736B60F6
:109960000EF018F8454B4C4A98422B6896BF23F0EE
:10997000600343F0600343F020032B6004230225BF
:109980006EE7042288E73E4B3E4A034493422CBFD5
:109990000222032280E7354B354A4FF48071196269
:1099A000D2F8A435002BFBD0082100230222022C80
:1099B0004AD02E4A936A23F4801323F00C030B43FE
:1099C000936270BD294B2A4A40211962D2F89C3516
:1099D000002BFBD0042100230122E8E70DF0FEFE5E
:1099E000294B98423ED9294B0122984294BF4FF40B
:1099F00080734FF400731E481C4982674A6822F442
:109A00008072134301224B60C0F810280C21002300
:109A10000322CCE700210B460A46C8E74FF4801129
:109A20004FF480330022C2E7042A3FF464AF984227
:109A300016D8134B134A034493422CBF022203222D
:109A400063E7002420463FE708491A438B6A23F462
:109A5000803323F0030313438B6270BD042254E769
:109A6000052252E700231A46C5E700BF00800C40DC
:109A7000000090439C05904300000C400048E80122
:109A8000FFDB0BFF0024F40000366E01006CDC02EB
:109A9000A4059043840590438C059043042819D86D
:109AA00091B10D490D4B51F8201010B40C4C1962B6
:109AB00054F820002AB10B4A024492001368002B8C
:109AC000FCD05DF8044B7047074A044B52F8202045
:109AD0001A627047704700BFE4E2010000800C404A
